:020000040000FA
:10000000000EF86E000EF76E660EF66EDD0E016ED7
:10001000896A0900F5CFE8FF892A016212EF00F032
:100020002AEF00F001641AEF00F0E8CF8AFF090020
:100030000AEF00F0E8CF8BFF01C0E8FF8B5EE8CF4E
:100040008CFF8ACFE8FF8CCF8AFF8A5C8B608906A1
:100050002AEF00F0000E89622FEF00F0892A89CF85
:1000600002F060EF00F004090D12161B1F24282C6B
:1000700031353A3E42474B4F53585C6064686C7070
:1000800074787C8084888B8F93969A9EA1A5A8AB68
:10009000AFB2B5B8BBBEC1C4C7CACCCFD2D4D7D912
:1000A000DBDEE0E2E4E6E8EAECEDEFF1F2F3F5F6B0
:1000B000F7F8F9FAFBFCFDFEFEFFFFFFFFFFFF0074
:0200C00000003E
:020000040030CA
:0100010008F6
:010003001EDE
:00000001FF
